:020000040000fa
:10000000f0ff0320c94c00007b6a00005b6b00001e
:10001000116f0000136f0000156f0000000000005a
:10002000000000000000000000000000f368000075
:10003000776c000000000000f3680000f368000027
:10004000f3680000f3680000f3680000f368000044
:10005000f3680000f3680000f3680000f368000034
:10006000f3680000f3680000f368000021670000f7
:10007000f3680000f3680000f3680000f368000014
:10008000f3680000f3680000f3680000f368000004
:10009000f3680000f3680000f3680000f3680000f4
:1000a000f3680000f368000055680000f368000082
:1000b000f3680000f3680000f3680000ad6e000014
:1000c000b76e0000f3680000f3680000f3680000fa
:1000d000f3680000f3680000f3680000f3680000b4
:1000e000f3680000f368000000000000000000005a
:1000f00000000000f3680000f3680000f3680000ef
:10010000f3680000f3680000cd3a0000cd3a00002b
:10011000cd3a0000cd3a0000f3680000f36800001b
:10012000f3680000f3680000f3680000f368000063
:10013000f3680000f3680000f3680000f368000053
:10014000f3680000f3680000d55a0000d55a00009b
:10015000d55a0000d55a0000000000000000000041
:10016000000000000000000000000000000000008f
:100170000000000000000000f3680000f3680000c9
:10018000f3680000f3680000f3680000f368000003
:1001900000000000f3680000f3680000f36800004e
:1001a000f3680000f3680000f3680000f3680000e3
:1001b000f3680000f3680000f3680000f3680000d3
:1001c000f3680000f3680000f3680000f3680000c3
:1001d000f3680000f3680000f3680000f3680000b3
:1001e000f3680000f3680000f3680000f3680000a3
:1001f000f3680000f3680000f3680000f368000093
:10020000f36800000000000000000000f368000038
:10021000f3680000f3680000f3680000f368000072
:10022000f3680000f3680000f3680000f368000062
:10023000f3680000f3680000f3680000f368000052
:10024000f3680000f3680000f3680000f368000042
:10025000f3680000f3680000f3680000f368000032
:020000040000fa
:10026000f8b500bff8bc08bc9e4670477d60000032
:10027000f8b500bff8bc08bc9e4670475960000046
:020000040000fa
:0802800034240000010000001d
:020000040000fa
:100288000d0a2d2d2d2d2d2d2d2d2d2d20414443a5
:1002980020636f6e66696775726174696f6e20633b
:1002a8006f6d6d616e6473202d2d2d2d2d2d2d2dcf
:1002b8002d2d00000d0a202a2a2a2000202a2a2a69
:1002c800000000000d0a00000d0a2d2d2d2d2d2dea
:1002d8002d2d2d2d2d2041444320696e7465726e9d
:1002e800616c20726567697374657273202d2d2d9a
:1002f8002d2d2d2d2d2d2d2d2d0000000d0a202dfd
:100308002d2d20416464722e202d2d2052656769a1
:1003180073746572202d2d204e6f2e206f6620423b
:10032800697473202d2d2d001b5b303b33366d2dea
:100338002d2d2d2d2041626f7574207468697320ee
:100348004275696c64202d2d2d2d2d0d0a1b5b30f7
:100358006d417574686f722f2d7320203a20416e9d
:100368006472656173204269726b204775737461aa
:1003780066736f6e0d0a50726f6a65637420202071
:10038800203a2041444320636f6e66696775726145
:1003980074696f6e0d0a436f6d70616e792020204d
:1003a800203a20486f7474696e67657220427275ce
:1003b800656c2026204b6a6165720d0a50726f6762
:1003c80072616d6d6564203a204d61792031342069
:1003d800323032342031313a34393a32360d0a4427
:1003e800657669636520202020203a2053414d45d9
:1003f80035314a3230410d0a0d0a000053656e64ea
:10040800696e673a20307825780d0a004465766968
:1004180063652066756c6c2072657365742e2e2e6c
:100428000d0a00001b5b313b33336d4572726f72ee
:1004380020696e697469616c697a696e67204144e4
:10044800432073696e676c652d73686f74210d0a9c
:100458001b5b306d000000001b5b313b33336d418b
:100468004443207368757474696e6720646f776e8f
:100478002e2e2e0d0a1b5b306d0000001b5b303bdf
:1004880033316d4572726f7220696e697469616c7f
:10049800697a696e672041444320636f6e7665729e
:1004a80073696f6e210d0a1b5b306d001b5b313b5e
:1004b80033336d41444320676f696e6720696e204e
:1004c8007374616e6462792e2e2e0d0a1b5b306d7b
:1004d800000000001b5b303b33326d416e616c6f76
:1004e800672076616c756520636f6e7665727465da
:1004f80064210d0a1b5b306d0000000055736167b5
:10050800653a2052454144203c72656769737465b9
:100518007220616464723e0d0a00000045783a203a
:1005280052454144203078310d0a0000414443448b
:100538004154410d0a00000053656e64696e6720de
:10054800646174613a20307825780d0a0000000053
:100558001b5b303b33326d41444320766f6c7461d2
:100568006765203d2025642e253036642056200df1
:100578000a1b5b306d00000052656164696e673a62
:1005880020434f4e464947300d0a0000434f4e4620
:1005980049473020636f6e7461696e733a20307812
:1005a80025580d0a0000000052656164696e673abb
:1005b80020434f4e464947310d0a0000434f4e46ef
:1005c80049473120636f6e7461696e733a203078e1
:1005d80025580d0a0000000052656164696e673a8b
:1005e80020434f4e464947320d0a0000434f4e46be
:1005f8004947323a20636f6e7461696e733a2030ee
:100608007825580d0a00000052656164696e673ae2
:1006180020434f4e464947330d0a0000434f4e468c
:1006280049473320636f6e7461696e733a2030787e
:1006380025580d0a0000000052656164696e673a2a
:10064800204952510d0a000049525120636f6e74bf
:1006580061696e733a20307825580d0a0000000051
:1006680052656164696e673a204d55580d0a00005d
:100678004d555820636f6e7461696e733a203078f7
:1006880025580d0a0000000052656164696e673ada
:10069800205343414e0d0a005343414e20636f6e71
:1006a8007461696e733a20307825580d0a0000008d
:1006b80052656164696e673a2054494d45520d0a86
:1006c8000000000054494d455220636f6e74616903
:1006d8006e733a20307825580d0a0000526561641f
:1006e800696e673a204f464653455443414c0d0abc
:1006f800000000004f464653455443414c20636f69
:100708006e7461696e733a20307825580d0a0000be
:1007180052656164696e673a204741494e43414cce
:100728000d0a00004741494e43414c20636f6e74e7
:1007380061696e733a20307825780d0a0000000050
:100748004572726f722120496e76616c696420521d
:10075800656769737465720d0a00000055736167f7
:10076800653a205752495445203c7265676973744d
:10077800657220616464723e203c636f6e666967cf
:100788003e0d0a0045783a205752495445203078a2
:10079800343620307845330d0a000000436f6e660a
:1007a800696775726174696f6e20746f207265670e
:1007b80069737465723a2025780d0a005772697456
:1007c800653a20434f4e464947300d0a0000000065
:1007d80057726974653a20434f4e464947330d0aac
:1007e8000000000057726974653a204f4646534529
:1007f8005443414c0d0a0000436f6e6669672e2012
:10080800646174613a20307825780d0a0000000090
:10081800496e697469616c697a696e6720414443fd
:100828002073696e676c652d73686f742e2e2e0d9c
:100838000a0000004572726f7220696e69746961fe
:100848006c697a696e67204144432073696e676cee
:10085800652d73686f74210d0a000000526561648c
:10086800696e672073696e676c652d73686f742095
:10087800636f6e76657273696f6e2e2e2e0d0a0089
:10088800526563656976696e673a20307825780d18
:100898000a000000526563656976696e673a20252b
:1008a800640d0a0052656164696e672061206e6597
:1008b800676174697665206e756d626572202d2397
:1008c8000d0a0000526563656976696e673a2025ee
:1008d800780d0a001b5b303b33326d414443207670
:1008e8006f6c74616765203d2025642e2530356462
:1008f8002056200d0a1b5b306d0000004144432048
:10090800676f696e6720696e746f20536c656570d8
:100918004d6f646520737461746521200d0a0000b1
:1009280053657474696e6720746865204144432078
:10093800696e20636f6e74696e756f7573206d6f65
:1009480064652e2e2e0d0a001b5b303b33316d453e
:1009580072726f7220696e697469616c697a696e06
:10096800672041444320636f6e74696e756f7573b9
:1009780020636f6e76657273696f6e210d0a1b5b5b
:10098800306d00003a2041444320636f6e6669670a
:1009980075726174696f6e20636f6d6d616e6473db
:1009a80000000000414443001b5b303b33326d4480
:1009b800657669636520626f6f74656420636f7222
:1009c800726563746c79211b5b306d0d0a00000041
:1009d8001b5b303b33316d4572726f7221202d2db8
:1009e8003e2041444320636f6d6d616e64732066e1
:1009f80061696c656420746f20696e697469616ce3
:100a0800697a651b5b306d0d0a00000052657475cc
:100a1800726e2076616c75653a20307825780d0afb
:100a28000000000041444320636f6e76657273696d
:100a38006f6e3a284d6179203134203230323420bb
:100a480031313a34393a323629203d2025642e2571
:100a58003032642056200d0a000000003078302023
:100a68002d2d2d2d204144434441544100000000c8
:100a78002020202d2d2d2d20342f32342f333220bd
:100a880000000000307831202d2d2d2d20434f4eb1
:100a980046494730000000002020202d2d2d2d2014
:100aa80038200000307832202d2d2d2d20434f4e38
:100ab8004649473100000000307833202d2d2d2d78
:100ac80020434f4e4649473200000000307834201a
:100ad8002d2d2d2d20434f4e464947330000000051
:100ae800307835202d2d2d2d204952510000000041
:100af800202020202020202d2d2d2d2038200000e2
:100b0800307836202d2d2d2d204d55580000000011
:100b1800307837202d2d2d2d205343414e000000d5
:100b28002020202020202d2d2d2d203234200000a3
:100b3800307838202d2d2d2d2054494d4552000058
:100b480020202020202d2d2d2d20323420000000a3
:100b5800307839202d2d2d2d204f464653455443ae
:100b6800414c0000202d2d2d2d2032342000000076
:100b7800307841202d2d2d2d204741494e43414ca1
:100b8800000000002020202d2d2d2d2032342000a3
:100b9800202020202020203a205669657720616c8b
:100ba8006c2041444320636f6e6669677572617497
:100bb800696f6e20636f6d6d616e64730000000075
:100bc800524547495354455273000000203a205675
:100bd80069657720616c6c20616363657373696212
:100be8006c6520696e7465726e616c2041444320a7
:100bf80072656769737465727300000057524954cf
:100c08004500000020202020203a20577269746592
:100c1800207468652073706563696669656420720d
:100c280065676973746572005245414400000000ad
:100c38002020202020203a205265616420746865b5
:100c48002073706563696669656420726567697396
:100c58007465720053494e474c45000020202020ff
:100c68003a2047657420612073696e676c6520635c
:100c78006f6e76657273696f6e206f6e207468652b
:100c880020737065636966696564206368616e6e68
:100c9800656c0000434f4e54494e554f5553000064
:100ca8003a2047657420636f6e74696e756f75734b
:100cb80020636f6e76657273696f6e206f6e207435
:100cc8006865207370656369666965642063686137
:100cd8006e6e656c00000000434f4e56455254003e
:100ce8002020203a2041444320436f6e766572737a
:100cf800696f6e2053746172742f526573746172d8
:100d080074204661737420436f6d6d616e640000da
:100d18005354414e444259002020203a2041444334
:100d2800205374616e646279204d6f64652046615a
:100d3800737420436f6d6d616e64000053485554a1
:100d4800444f574e0000000020203a2041444320e1
:100d580053687574646f776e204d6f6465204661c3
:100d6800737420436f6d6d616e64000044454641a5
:100d7800554c54002020203a204144432046756cad
:100d88006c205265736574204661737420436f6ddf
:100d98006d616e640000000061626f757400000090
:100da80020202020203a2041626f757420746865e5
:100db80020736f6674776172652f686172647761fa
:040dc8007265000050
:020000040000fa
:040dcc00816170478a
:020000040000fa
:100dd000f8b52ded028b022911d004464568c44eaa
:100de00003681b6806f51f712846984723681b682f
:100df00006f5277128469847bdec028bf8bdbd4c1f
:100e00005168204606f046f80522bb49204605f009
:100e100049fd00287ad00522b849b64805f042fdc0
:100e2000002800f0c6800522b549b24805f03afd19
:100e3000002800f0e4800522b249ae4805f032fdfa
:100e4000002800f003810522af49aa4805f02afdd9
:100e5000002800f022810522ac49a64805f022fdb9
:100e6000002800f079810522a949a24805f01afd61
:100e7000002800f098810522a6499e4805f012fd41
:100e8000002800f0b7810522a3499a4805f00afd21
:100e9000002800f0d6810522a049964805f002fd01
:100ea000002800f0f58105229d49924805f0fafce2
:100eb000002840f01c828e4e06f5926105f070fb12
:100ec000984c012565700a22a270e570692204f829
:100ed000042f06f52e71002004f0aafb0021924891
:100ee00005f0aeff914b2022c3f894200423904ad2
:100ef0002946204602f07cfc05f028fc0028fbd1a6
:100f00008b4bda788b4904f093fb4de0784e06f575
:100f10002b7105f045fb834c012565700020a07006
:100f2000e570412204f8042f06f52e7104f080fbd1
:100f30007e4b2022c3f8942004237d4a2946204674
:100f400002f056fc05f002fc0028fbd1784a9178ab
:100f500053781b0443ea0123d2781343764a936003
:100f600007ee903af8eee77a9fed747a67ee877aab
:100f70009fed737a67ee877abdeee78ab8eec87a9e
:100f800077eec77a17ee900a05f046fa56a3d3e932
:100f9000002302f047fe04f089ff034618ee102af2
:100fa0006849002004f044fb604b2022c3f89820dd
:100fb00022e74f4e06f53e7105f0f2fa594c012535
:100fc0006570a570e570452204f8042f06f52e71b2
:100fd000002004f02dfb554b2022c3f8942002235f
:100fe000534a2946204602f003fc05f0affb0028d7
:100ff000fbd14f4b5a78544904f01afbd4e73c4fcd
:1010000007f54a7105f0ccfa464c012565700226b9
:10101000a670e570492204f8042f07f52e71002010
:1010200004f006fb414b2022c3f894203346404a8b
:101030002946204602f0dcfb05f088fb0028fbd1a6
:101040003b4b5a78414904f0f3faade7284e06f5d8
:10105000567105f0a5fa334c012565700323a37082
:10106000e5704d2204f8042f06f52e71002004f0df
:10107000dffa2e4b2022c3f8942002232c4a294663
:10108000204602f0b5fb05f061fb0028fbd1284ba0
:101090005a782f4904f0ccfa86e7154e06f56271ae
:1010a00005f07efa1f4c012565700423a370e570de
:1010b000512204f8042f06f52e71002004f0b8fa2e
:1010c0001a4b2022c3f894200223194a29462046ad
:1010d00002f08efb05f03afb0028fbd1144b5a7846
:1010e0001c4904f0a5fa5fe70000000080842e414f
:1010f000880200000c1100209c170020ac17002073
:10110000bc170020cc170020dc170020fc170020a3
:101110000c1800202c1800203c1800201c1800205f
:10112000ec1700200c0f0020056c0000008000412f
:101130000c0e00202c0700006817002033335340aa
:10114000000000345805000094050000c4050000ac
:10115000f405000024060000674e06f56e7105f0e8
:101160001ffa664c012565700523a370e5705522b2
:1011700004f8042f06f52e71002004f059fa604b94
:101180002022c3f8942002235e4a2946204602f01a
:101190002ffb05f0dbfa0028fbd15a4b5a785a494d
:1011a00004f046fa00e7544e06f5787105f0f8f9b8
:1011b000524c012565700623a370e570592204f88e
:1011c000042f06f52e71002004f032fa4c4b202239
:1011d000c3f8942002234b4a2946204602f008fb1c
:1011e00005f0b4fa0028fbd1464b5a78474904f081
:1011f0001ffad9e6404e06f5816105f0d1f93f4c62
:10120000012565700723a370e5705d2204f8042fa3
:1012100006f52e71002004f00bfa394b2022c3f89a
:1012200094200423374a2946204602f0e1fa05f0cb
:101230008dfa0028fbd1334bda78354904f0f8f900
:10124000b2e62d4e06f5866105f0aaf92b4c012574
:1012500065700823a370e570612204f8042f06f579
:101260002e71002004f0e4f9254b2022c3f89420cd
:101270000423244a2946204602f0bafa05f066fa09
:101280000028fbd11f4bda78224904f0d1f98be614
:10129000194e06f25c4105f083f9184c0125657082
:1012a0000922a270e570652204f8042f06f52e715c
:1012b000002004f0bdf9124b2022c3f8942004232f
:1012c000104a2946204602f093fa05f03ffa00281a
:1012d000fbd10c4b99785a78120442ea0122db7850
:1012e0001a430d4b9a600d4904f0a2f95ce60c49d3
:1012f000002005f055f957e6880200000c0f002089
:10130000008000410c0e002050060000780600000e
:10131000a0060000cc06000068170020fc060000b4
:04132000480700007a
:020000040000fa
:04132400416170476c
:020000040000fa
:101328002de9f04f2ded028bd2e9008997b0cde978
:101338000c138b6808930b690f90d1e900b61493ce
:10134800cd68002200234046494604f0a9ff40b971
:101358001bf0040f32d11bf00803059330d0202373
:1013680003e089f0004399462d232b70089b03f175
:10137800ff3a012305934c4929f0004300208b4292
:1013880008bf80451fd10d9b413b192b059b94bf7e
:10139800464947492b44184605f078fd284605f08c
:1013a80039fccdf800b00246089b0f98294603f097
:1013b80015ff17b0bdec028bbde8f08f2b23d4e7e7
:1013c800ddf820a0d7e7994208bf404509d20d9b18
:1013d800413b192b059b94bf364937492b44184686
:1013e800dae7002200234046494605f044f89fed1d
:1013f8002c7b8ded027b48b300240d9805f008fd89
:10140800002ec3b20993c0f2d781672b5ad1002ea0
:1014180008bf0126231d02dbb442c0f2c68165273e
:1014280061e09ded067b8ded027b01340022234bac
:10143800dde9020102f0f2fb42464b46cde9060126
:1014480004f012ff0028ecd000271fe00446ede767
:1014580014f5967f11da87b90022194b40464946a0
:1014680002f0dcfb002280468946154bdde90201cb
:1014780002f0d4fbcde902010127dde902010022d7
:101488000e4b01f0d8fccde90201013cdde9022355
:101498004046494604f004ff0028d9d1ade700bf13
:1014a800000000000000f03f0000f07f086e000020
:1014b8000c6e0000106e0000146e00000000244046
:1014c80000005043099f662f06f101060bd1002c3e
:1014d80004da9fedbd7b8ded027b0024099b672b11
:1014e80018bf361966279ded027bcde906898ded7b
:1014f8000a7b00230e93dde90a23dde9060101f0ea
:101508009afc41ec100b02f0f7ff51ec100bb0ee17
:10151800408af0ee608a04f0c5fcb0ee480af0eeae
:10152800680a069b1093079b159083f0004311935c
:101538009ded0a1b9ded102b05f046f953ec102b81
:1015480083f000430793dde90a01a34b8ded060afa
:10155800002201f070fc0e9b01339e42cde90a0186
:101568000e93c8d100229d4b02f058fbcde90a0129
:1015780002460b46dde9060104f092fe002840f021
:101588008180dde90a23dde9060104f074ff10b16a
:10159800159bda0776d5dde90a234046494601f06e
:1015a8002bfb0022cde906018b4bdde9020102f09d
:1015b80035fbdde90623cde90a0104f0e3fd002847
:1015c80065d0662f04f1010465d10136a146a9eb67
:1015d80006034ff00008059e1093cdf80880109b75
:1015e800994540f08180029b002b00f0c880a81923
:1015f8000022652f027029d1149b1499013b944253
:10160800ea54c1f1030ebcbf644201220a21002c36
:1016180040f0bc800eeb030cbcf1000f00f3b68069
:10162800002a03f1ff3114bf2d222b226a540d9a90
:10163800023b413a192a05eb030198bf45279e4210
:101648000f70aaf1020a01da05f020fc0bf003037f
:10165800022b7ff4a3aebaf1000f7ff79fae2846a6
:1016680005f0d8fa05eb0a03059a824240f39980ff
:10167800059b2b4418465246302105f03ffb0023ba
:1016880008938be69fed527b8ded0a7b83e79dedfa
:10169800027b8ded0a7b652f14bfa1464ff0000930
:1016a80095e7029a52b9b9f1000f07da0e992e227e
:1016b8006a54012201360af1ff3a029205eb080149
:1016c800aa193144302001e002f8010b9142fbd104
:1016d80008eb06023033aaeb080808f1ff3a561c5b
:1016e800ab544ff0000828e00c9b0e961b69053b95
:1016f800b3427ff678afdde90a23dde9060101f0a0
:101708009afb41ec100b02f0f7fe51ec100bb0ee17
:10171800408af0ee608a04f0c5fb0bf0100209283d
:101728000346a8bf09230243bbd1099a672ab8d147
:10173800b9f1000fc2da08f10108069b1293079b62
:10174800b0ee480af0ee680a83f0004313939ded6b
:101758000a1b9ded122b05f037f853ec102b83f084
:1017680000430793dde90a0100221b4b8ded060ab1
:1017780001f061fb09f1ff39cde90a012fe71bf000
:10178800100f1ebf2e23ab55013630e7b4fbf1fc1a
:10179800013b01fb1c443034ec540af1ff3a644627
:1017a80035e72a5c1a5401385ee7002cbff69aae7a
:1017b800662788e606262de6099b672bfad01f4682
:1017c800062680e6aff30080000000000000f03f2e
:1017d8000000000000000000000024400000144049
:020000040000fa
:1017e8002de9f04f95b0cde912030b68089392edff
:1017f800007b4b680a938b6809930b690d93cc683f
:101808000022002351ec170b8ded047b04f048fdfa
:1018180040b9089b580734d4089b13f0080732d006
:10182800202306e0dde9042181f00043cde904230b
:101838002d232370099b01275a1edde90403dff8d5
:10184800f8b223f000414ff0000a594508bf50454f
:101858001bd1139b413b192b04eb070094bfb049e4
:10186800b04905f013fbaf4805f0d4f9089b009385
:101878000246099b1298214603f0b0fc15b0bde85a
:10188800f08f2b23d5e7099ad7e7139b8b45a3f154
:10189800410308bf82450b9309d2192b04eb0700bb
:1018a80094bfa149a14905f0f1faa048dce730212d
:1018b800e1550b997b1c1a2934bf58217821e15432
:1018c800931e079300220023dde90401023704f088
:1018d800d2fd002800f07b819fed8f7b8ded027b90
:1018e80000250a9bdde90289002bdde904abb8bfbe
:1018f80018230e93002642464b465046594601f09f
:101908009afa41ec100b02f0f7fd42464b4651ecb7
:10191800100b8ded100b02f081f902460b46504674
:10192800594605f0ddfa824b82468b4640464946c9
:10193800002202f073f9731c0c930a9b002b80465b
:10194800894606da002200235046594604f093fde2
:1019580028b90e9bb34200f3408101330c93002257
:10196800744b4046494602f059f98046894602467a
:101978000b465046594604f093fc002840f02f814e
:1019880042464b465046594604f075fd30b1dde9f4
:10199800100104f087fac10740f1218142464b4605
:1019a800dde9040101f028f9cde90401dde90421ac
:1019b80021f00043604900208b4208bf82423ff477
:1019c80048af4ff000083e46c246c1460d9b053b56
:1019d800b342b34633d9dde90223dde9040101f05e
:1019e8002afa41ec100b02f087fd51ec100b8ded3b
:1019f8000e0b04f057fa002840f0f680b9f1000ffa
:101a080000f0f28008f10108dde90223dde90e01aa
:101a180002f004f902460b46dde9040105f060fa1c
:101a2800434bcde904010022dde9020102f0f6f89a
:101a38000c9b09f101094b45cde90201c6d1baf168
:101a4800000f1dd1b8f1000f00f014810a9b002b84
:101a580040f31081089bda0700f10c81a3192e22ac
:101a68001a7008eb06022244302103f8011f9a423b
:101a7800fbd1079b46446fea0808434401360793a5
:101a88000d9b0d990022a019013b95420270b8bf29
:101a98006d42e254c1f1020eb8bf01224ff00a08ac
:101aa800002d40f0d7800eeb030cbcf1010f00f0c5
:101ab800d180002a03f1ff3114bf2d222b2262545a
:101ac8000b9a023b1a2a04eb030134bf50227022fe
:101ad8009e420a7001da05f0d9f9089b03f0030366
:101ae800022b14d1079ba3f10208b8f1000f0eddf9
:101af800204605f08ff804eb0803b84280f2b68060
:101b080042463021e01905f0f9f8002309932046f0
:101b1800aae600bfaff30080000000000000f03f1d
:101b2800f86d0000fc6d0000006e0000046e0000ff
:101b38000000b03f000020400000f07fcde902899e
:101b48000135dde902231046194601f055f88046b3
:101b5800894602460b46dde9040104f0a1fb002892
:101b6800ecd0dff82cb1dff82c914ff0000a4ff0e1
:101b78000008dde90223dde9040104f091fb0028f7
:101b88003ff4afae52465b46dde9020102f046f88b
:101b98000022002304f06ffc78b142464b46dde991
:101ba800020102f03bf84246cde902014b46dde96d
:101bb800040102f033f8cde90401dde902015246df
:101bc8005b4602f02bf8013dcde90201d1e79fed1c
:101bd8002e7b05468ded027bb3e70c9e8be64ff01e
:101be80000084ff00009d9e6baf1000f0bd1b9f19e
:101bf800000f08d02e2304f80b30079b013b013659
:101c080007934ff0010a04eb0803a219334430216b
:101c180001e002f8011b9a42fbd1079b06eb080b77
:101c2800a3eb08080b9b0928d4bf30305730192b79
:101c380006d840f02003613b192b01d805f0eff8d6
:101c480008f1ff330bf1010604f80b0007934ff07e
:101c58000008d9e60799b5fbf8fc013b08fb1c55c1
:101c680030350139e5540791654619e7225c1a5465
:101c7800013842e7089bdb067ff502af2e23a35508
:101c88000136fde6aff30080000000000000f03fe1
:081c98000000e03f0000504392
:020000040000fa
:101ca000ac4b1b68002b40f01f822de9f04fbbb0fe
:101cb000a94b1c682cb1dff8c0b20bf5e27303939b
:101cc000a6e0a64911f8012fa54802f0b9ff38b1e6
:101cd000a14b1c68002ceed101203bb0bde8f08f79
:101ce000a04b1b78002bf3d105f0bcf8012803d8da
:101cf0009c4b01221a70ebe705f0aef89a4903f00d
:101d000097fcf5e700236375984e04f1120803274a
:101d100006f148093a463168404604f0c3fd002800
:101d200000f0e0810c364e45f4d1002323826be0b5
:101d30000d283ad00a2838d0082800f065817f287d
:101d400000f097811b2800f0b581e26904f12008ba
:101d5000a2eb08034f2b00f3b781a369d31a00f05d
:101d6000af81d01a12f8011c02f801198242f9d190
:101d7000e269511ce16100215170a26901320bf549
:101d8000f47104f1720004f0dbfe214601f8717f6a
:101d9000336828469847a3691f70a3690133a3617c
:101da000e269934230d9e3612ee004f1200ae3694d
:101db000534557d033680bf1680128469847e369cb
:101dc00000211970c4f818a0c4f81ca020220deb43
:101dd000020004f097ff676804975122514610a84b
:101de00005f05ef8082208a910a803f0bbf90290dc
:101df00000283dd123681b680bf59271384698473f
:101e00003368039928469847a468002c3ff464afd0
:101e100026686568f368284698470028f4d0336937
:101e2000284698470746b4f91030002b80d0e218b6
:101e3000907401331db22582032d3ff463af022d50
:101e4000e2dde668b3689d42ded1316804f112003c
:101e500004f006ff18b973683146204698470023fe
:101e60002382d1e733680bf1980128469847cbe7e6
:101e7000029b002b06dc23681b680bf5ca710498d3
:101e80009847bde7d4f8cc30d4f8d070bb4236d0f8
:101e90007a68c4f8d0201360d4f8cc30d4f8d020bd
:101ea0005a605122514607f1080004f0f9ffd4f8b6
:101eb000cc305bb33b60d4f8d0307b601f60d4f88b
:101ec000cc305f60c4f8cc700023c4f8d430ddf8a7
:101ed0002080274f07f124093968404604f0c0feee
:101ee000d8b10c374f45f7d1224b03f11802d83344
:101ef00005930696cdf81ca0a24691464be0002221
:101f0000c4f8cc20c4f8d0201f46cae7c4f8cc706f
:101f1000c4f8d0703f607f60d6e7029b082b07ddd6
:101f200023685b6808220bf5ae710498984767e751
:101f30007b6808aa02992046984761e75446069ea6
:101f4000daf800305b6808220bf5ae710498984708
:101f500056e700bf74170020581700201c170020f8
:101f6000b46c00000b120020702a0000f85e000024
:101f7000f468000094130020702900005446069e67
:101f80007b6808aa02995046984739e709f1180971
:101f9000059b4b4532d04c4659f8146c002ef5d0b9
:101fa00059f8087c9fb15122079925a804f078ffc1
:101fb00059f8043c0093512325aa51463046b847ae
:101fc000f8b9082208a925a803f0ccf80290029bd2
:101fd000082bb3dc54f8147c54f8184c002cd5d0e2
:101fe000ddf8208000263968404604f039fe0028dc
:101ff000c4d001360c37a642f5d1c7e75446069e39
:1020000039e75446069efbe6a16904f12003994294
:102010007ff6faaee36999421fd24a1e5b1a06d0d8
:10202000581e0144507802f8010b8a42fad1a26985
:10203000013aa261e269511ee161002102f8011c2e
:1020400004f17107a2690bf5e471384604f078fddc
:102050003368394628469847d6e633680bf5ea7167
:1020600028469847a369013ba361e369013be3610b
:10207000cae6e369a26993427ff6c6ae511c5b1ab9
:1020800005d0d018517802f8011b9042fad1e269cc
:10209000511ee161002102f8011c04f17107a269df
:1020a0000bf5ee71384604f04bfd3368394628468f
:1020b0009847a9e64ff01b03a37401232382a3e6ec
:1020c000002384f8723060e633680bf5f871284617
:1020d0009847c4f81880c4f81c80336803992846d0
:0c20e000984791e6e660ace601207047ee
:020000040000fa
:1020ec002de9f041aeb0064615460591002705993d
:1020fc000b78002b00f0fa8000244ff0ff33cde971
:10210c0009430eab0c9380230b940d930b5d0bb119
:10211c00252b26d134b12246304604f0d1fb059b49
:10212c0023440593059b1a78252a40f0d78003f1a8
:10213c000108cdf81480059803782b2b1ad025d8dc
:10214c00202b1bd0232b1dd02a2b27d003f016ffbe
:10215c000b90059b1a78303a092a2ed80133059337
:10216c00f7e70134d2e7099b43f0010301300993ef
:10217c000590e0e7099b43f00403f7e7099b43f064
:10218c000803f3e7099b43f01003efe72d2bead08c
:10219c00302bd9d1099b43f00203e7e72b681a1dba
:1021ac001b682a600130002b05900b9305da099a05
:1021bc005b4282f0010209920b93099bda0744bf40
:1021cc0023f002030993059b1a782e2a0dd10022c5
:1021dc00581c0a9205905a782a2a25d10233059365
:1021ec002b681a1d1b682a600a9305a804f01ef8b8
:1021fc00059b0390187804f009fe6928039979d09f
:10220c0032dc632800f0cb8019dc252800f0d98063
:10221c00612853d000234ff0ff32cdf8148009937e
:10222c000b930a920093d4e003f0a8fe0a90059b4e
:10223c001a78303a092ad8d801330593f7e764287d
:10224c0058d06728e6dc2a4606a804f0e7fa0028ee
:10225c0000f0a180059b5a1c05921b7806aa09a9bf
:10226c003046fff75bf838e0702873d015dc6e2829
:10227c0000f08c806f28cdd12b46002206a802f0ee
:10228c00b7fa002800f08780059b06aa013309a93c
:10229c003046059303f08df91fe075283ad0782865
:1022ac0048d07328b6d1802975d1059b2a68013393
:1022bc000593131d2b60126800237de02a4606a8a7
:1022cc0004f0acfa002866d0059b5a1c05921b78ca
:1022dc0006aa09a93046fff781fa04443c44a742f8
:1022ec007add3e4b4f221a604ff0ff3738462eb046
:1022fc00bde8f0812b46012206a802f079fa0028ed
:10230c0049d0059b06aa013309a93046059302f072
:10231c0019fbe2e72b46002206a802f069fa002816
:10232c0039d0059b06aa013309a93046059303f061
:10233c0023fcd2e72b46002206a802f059fa50b330
:10234c00059b5a1c05921b7806aa09a9304601f078
:10235c00fbfcc2e72b460022f02106a802f048fa4b
:10236c00c8b1059b01330593dde9062313430bd15b
:10237c001b4804f04dfc099b009319490b9b02462a
:10238c00304602f029ffa8e77823dde72b463a19ff
:10239c0006a803f01df8059b013305939ee78029e1
:1023ac00f9d1059b013305932b681a1d1b682a6014
:1023bc008df8183006aa012309a9304603f0b0fbaa
:1023cc008be78029e7d1059b01330593099b00938b
:1023dc000b9b04490122d3e7274688e68c17002083
:0823ec00546a00005a6a000067
:020000040000fa
:1023f400001700201c00000000000000f41400205e
:1024040074000000000000002017002010000000ed
:1024140000000000a0160020600000000000000082
:10242400d4120020c000000000000000401700206b
:102434000c000000000000000b110020010000004f
:1024440000000000281600202c00000000000000fe
:10245400000000200008000000000000b815002063
:102464004000000000000000581700200800000091
:10247400000000001c170020040000000000000001
:102484000b120020010000000000000000080020e2
:102494000004000000000000701700200800000085
:1024a4000000000094130020c000000000000000a1
:1024b4004c1700200c000000000000000c1200204b
:1024c400c800000000000000951700200200000072
:1024d4000000000060170020080000000000000059
:1024e400971700200100000000000000781700206a
:1024f4000400000000000000f81500203000000077
:102504000000000054140020a0000000000000009f
:10251400541600204c000000000000007c1700202e
:10252400040000000000000030170020100000002c
:1025340000000000981700200100000000000000c7
:102544006817002008000000000000000c100020a4
:10255400ff000000000000000c110020ff0000003c
:10256400000000009417002001000000000000009b
:102574009917002002000000000000000c0e00204b
:1025840000010000000000000c0f0020000100000a
:10259400000000009c1700200f0000000400000051
:1025a400307830000c000000ac1700200f00000051
:1025b40004000000307831000c000000bc1700203b
:1025c4000f00000004000000307832000c0000000e
:1025d400cc1700200f000000040000003078330006
:1025e4000c000000dc1700200f00000004000000b5
:1025f400307834000c000000ec1700200f000000bd
:1026040004000000307841000c000000fc1700209a
:102614000f00000004000000307835000c000000ba
:102624000c1800200f000000040000003078360071
:102634000c0000001c1800200f0000000400000023
:10264400307839000c0000002c1800200f00000026
:1026540004000000307837000c0000003c18002013
:102664000f00000004000000307838000c00000067
:1026740080170020040000000000000068150020fe
:102684005000000000000000000c00200c020000bc
:10269400000000008417002010000000000000006b
:1026a40000000000000000006666666666666666f6
:020000040000fa
:1026b4002de9f04f099f154604468e461e46002b11
:1026c40040f0cc808a42b2fa82fc4cd9bcf1000fb3
:1026d4000bd0ccf1200801fa0cfe20fa08f802fa1b
:1026e4000cf548ea0e0e00fa0cf44fea15491ffaed
:1026f40085f8befbf9fa210c09fb1ae30afb08fb77
:1027040041ea03439b452ad9eb180af1ff3004d26e
:102714009b4502d9aaf102002b44a3eb0b03a4b2fc
:10272400b3fbf9f209fb123302fb08f844ea034451
:10273400a04516d92c1902f1ff3303d2a04501d9c3
:10274400931e2c44a4eb080443ea004027b124fa66
:102754000cf400233c607b603146bde8f08f5046aa
:10276400dbe71346eee702b9ffdebcf1000f2ed122
:102774008b1a01264fea154eaab2b3fbfef8210cc0
:102784000efb183308fb02f941ea0343994561d96a
:10279400eb1808f1ff3004d2994502d9a8f10200e0
:1027a4002b44a3eb0903a4b2b3fbfef10efb1133dc
:1027b4004a4344ea0344a2424ed92c1901f1ff339f
:1027c40003d2a24201d98b1e2c44a41abce7ccf13b
:1027d400200e02fa0cf521fa0ef901fa0cf320fa94
:1027e4000efe4eea03034fea154800fa0cf4b9fb57
:1027f400f8f11ffa85fe08fb1192180c01fb0ef686
:1028040040ea0242964221d9aa1801f1ff3003d2cc
:10281400964201d9881e2a44921b9bb2b2fbf8f956
:1028240008fb192209fb0efe43ea02439e450fd919
:10283400eb1809f1ff3604d29e4502d9a9f102062c
:102844002b44a3eb0e0346ea004693e70846e3e76e
:102854004e46f6e74046a4e70b46b6e78b4206d958
:10286400002f7ed00026c7e90001304674e7b3fa92
:1028740083fcbcf1000f0fd18b4201d3824209d8f3
:10288400841a61eb030e0120002f6dd0c7e9004ebe
:10289400002661e76046f7e7ccf1200e03fa0cf35b
:1028a40022fa0ef521fa0ef41d4301fa0cf320fa74
:1028b4000ef10b434fea154a00fa0cf6b4fbfaf991
:1028c4001ffa85f80afb19401c0c09fb08f144eabd
:1028d4000044a14202fa0cf23fd92c1909f1ff304d
:1028e40004d2a14202d9a9f102002c44641a9bb279
:1028f400b4fbfaf90afb194409fb08f843ea04415a
:1029040088452cd9691809f1ff3304d2884502d9c6
:10291400a9f10203294443ea0040a1eb0801a0fb0a
:1029240002894945c2464c4602d306d1464504d2e3
:10293400b8eb020a69eb05040138afb1b6eb0a0340
:1029440061eb040606fa0efe23fa0cf34eea0303c7
:1029540026fa0cf6c7e900369ae74846c6e74b461e
:0c296400d9e73e463846f7e63e46f5e669
:020000040000fa
:102970000d0a2d2d2d2d2d2d2d20537570706f725c
:1029800074656420636f6d6d616e642067726f752e
:102990007073202d2d2d2d2d2d0000000d0a202ac5
:1029a0002a2a2000202a2a2a000000000d0a2d2da4
:1029b0002d2d2d2d2d2d2d2d204275696c74206906
:1029c0006e20636f6d6d616e6473202d2d2d2d2d26
:1029d0002d2d2d2d2d0000000d0a00000d0a556e25
:1029e0006b6e6f776e20636f6d6d616e64206772c2
:1029f0006f75702e205472792068656c700d0a0016
:102a000008200800080000000d0a3e001b5b25643a
:102a1000430000001b5b2564440000000d0a202acf
:102a20002a2a205175697474696e6720746865205c
:102a3000436f6d6d616e642050726f636573736f69
:102a4000722e20427965202a2a2a0d0a00000000f1
:102a50000d0a202a2a2a2053797374656d20526545
:102a6000626f6f74202a2a2a0d0a000020092c00a8
:102a70004661696c656420746f206372656174657a
:102a80002074686520436f6e736f6c6520415049f8
:102a90000d0a0000202a2a2a20436f6d6d616e64a2
:102aa0002050726f636573736f723a20506c65616a
:102ab0007365207479706520696e206120636f6d85
:102ac0006d616e642a2a2a0d0a0000000a0d205446
:102ad0006f6f206d616e7920617267756d656e74c0
:102ae000732e204d6178696d756d2061726773205a
:102af000737570706f727465643a202564210d0ad5
:102b000000000000202a2a2a20436f6d6d616e6448
:102b10002050726f636573736f723a20756e6b6ebf
:102b20006f776e20636f6d6d616e642e202a2a2a86
:102b30000d0a00003e000000081b5b4b25731b5b69
:102b400025644400081b5b4b000000001b5b4b2509
:102b5000731b5b256444000025731b5b25644400e4
:102b6000202a2a2a20436f6d6d616e642050726f97
:102b7000636573736f72206275666665722065782f
:102b80006365656465642e2052657472792e202a0f
:102b90002a2a0d0a000000007265736574000000a7
:102ba0003a20526573657420686f737400000000ea
:102bb000710000003a207175697420636f6d6d615a
:102bc0006e642070726f636573736f720000000033
:102bd00068656c70000000003a2068656c70000049
:102be0001b5b41001b5b42001b5b43001b5b440003
:102bf0001b5b317e000000001b5b347e000000bfc9
:020000040000fa
:102c000030b591ea030f00f18280841a71eb030c56
:102c100005d2121953eb0c03001b71eb0c0140f2af
:102c2000000ccff6e07c1cea430f52d0bceb410f06
:102c30005fd90c0da4eb135e5ff0010c6cf31f5118
:102c40006cf31f53def1200c2ad303fa0cf5401964
:102c500041f1000122fa0ef5401923fa0ef56941ff
:102c600012fa0cf2cd0208d349085fea30005fea9d
:102c7000320228bf42f001020134013c5fea500ced
:102c800072f1004250f1000051eb04514ff4001377
:102c900013eb410f38bf30bd6ff31301002030bd7f
:102ca000bef1200ebef1200f1ed223fa0ef5401900
:102cb00041f10001cef1200c124218bf012203faab
:102cc0000cf52a43cee711ea5c0f04bf0020002177
:102cd00030bd1cea410f04bf01f00041002030bdaf
:102ce00001f00041002030bd21f4801101eb0451be
:102cf00030bd004218bf41f00101bceb410f08bfdd
:102d000030bd4ff0fe4141f47801002030bd83f02a
:102d10000043841a71eb030e07d28ef0004e001ba5
:102d200071eb0e01121953eb0e0340f2000ccff6bb
:102d3000e07c1cea430fc6d0bceb410f72d90c0dee
:102d4000a4eb135ec90241ea5051c00241f00041b8
:102d5000db0243ea5253d20243f00043def1200c7f
:102d600041d312fa0cf522fa0ef203fa0cf542eafc
:102d7000050218bf42f0010223fa0ef3801a9941ae
:102d8000e30ac4f30a0411f0404f03d418d0013c05
:102d900040004941013c23d44205c00a40ea415069
:102da000c90a51eac3715fea500c72f1004250f156
:102db000000051eb045130bd01002fd00020203c19
:102dc0000029f9d0b1fa81fcdcf1200e11fa0cf1e6
:102dd00030fa0ef510fa0cf02943a4eb0c04d9e7f5
:102de0000020d90730bdaef1200ebef1200f0dd26c
:102df000cef1200c03fa0cf533fa0ef32a4318bf78
:102e000043f00103c01a61f10001b9e721f000416c
:102e1000c00a40ea4150c90a01eb045130bd00200c
:102e2000002130bd004218bf41f00101bceb410f51
:0e2e30007ff467afbceb430f3ff463af30bde0
:020000040000fa
:102e3e00f0b581ea030e0ef0004e40f20007cff619
:102e4e00e07717ea41051ebf95ea070f17ea43041c
:102e5e0094ea070f00f0c5806d0da5eb545707f5ea
:102e6e0080674ff0004646eac12444ea5054c0023f
:102e7e0046eac32343ea5253d202801a9c4104d23b
:102e8e000018644180185c41013f5b084fea320232
:102e9e000025002140f001004ff0070604e0801ae3
:102eae009c4136d340416441801a9c4136d3404107
:102ebe006441801a9c4136d340416441801a9c4142
:102ece0036d340416441801a9c4136d3404164411f
:102ede00013e17d0801a9c4136d340416441801a7e
:102eee009c4136d340416441801a9c4136d34041c7
:102efe006441090201eb156190ea052520f0ff00ff
:102f0e004540cce7801a9c4156d335e080185c4191
:102f1e00c8d20018644180185c41c8d200186441c0
:102f2e0080185c41c8d20018644180185c41c8d238
:102f3e000018644180185c41c8d200186441013efb
:102f4e0017d080185c41c8d20018644180185c41cb
:102f5e00c8d20018644180185c41c8d20018644180
:102f6e00090201eb156190ea052520f0ff004540ae
:102f7e00cce780185c411fd3420918bf44f001040e
:102f8e00490101ebd56100f01f0000eb451021f463
:102f9e00801141ea0e01013041f10001244208bfc7
:102fae0020f00100b7f5006f3eda013f49dd01eb7d
:102fbe000751bde8f0407047490101ebd56100f0c3
:102fce001f0000eb451021f4801141ea0e01b7f508
:102fde00006f29da013f34dd01eb0751bde8f04007
:102fee007047004218bf41f00101124218bf43f072
:102ffe000103b7eb410f2cbfb7eb430f1ce0b7eb50
:10300e00410f04bfb7eb430f16e017ea410f04bfa1
:10301e0017ea430f10e017ea410f12d017ea430fd9
:10302e0002d0b7eb430f0cd04ef0fe4141f47001cd
:10303e000020bde8f04070474ff0fe4141f47801aa
:06304e00f6e77146f4e70d
:020000040000fa
:0430540001207047a0
:020000040000fa
:1030580070b52ded028b704b00241c705c709c7059
:10306800dc701c7168226d4d05f8012f6c492046f3
:1030780002f0dafa21466b4803f0defe6a4b2022a2
:10308800c3f894200121284603f0dcfe002800f054
:103098008c806649204603f07ffa03f0e9fd00289a
:1030a800fbd1634b1b784bb9624e0025604c294617
:1030b800304603f0bbfe2378002bf8d00021594896
:1030c80003f0bafe544c002020706070a070e070cd
:1030d80020714122514d05f8012f514902f0a4faff
:1030e800514b2022c3f8942004232246012128466c
:1030f80000f07afb00285fd103f024fb0028fbd105
:10310800454b99785a78120442ea0122db781a432f
:10311800494ca260494d05f5c06102f085faa268e4
:1031280005f21461002002f07ffaa36813f4000f7f
:1031380047d0254643f07f43a360404c04f2246106
:10314800002003f029faaa6804f24461002002f082
:103158006bfad5ed027af8eee77a9fed397a67eee9
:10316800877a9fed387a67ee877abdeee78ab8ee00
:10317800c87a77eec77a17ee900a03f049f924a3c4
:10318800d3e9002300f04afd02f08cfec34318ee99
:10319800102a04f25461002002f046fa2a4900205d
:1031a80003f0faf9bdec028b70bd2849002003f04a
:1031b800f3f9002003f03afd2549002003f0ecf96b
:1031c8009ae707ee903af8eee77a9fed1d7a67eef8
:1031d800877a9fed1c7a67ee877abdeee78ab8eeac
:1031e800c87a77eec77a17ee900a03f011f908a3a8
:1031f800d3e9002300f012fd02f054fe034618ee56
:10320800102a1449002002f00ffac7e7aff3008034
:1032180000000000006af8400c0e00200c0f00208f
:1032280004040000056c000000800041180800003c
:1032380099170020d96d0000681700208802000047
:103248003333534000000034040900003c080000f8
:0832580064080000dc0800001e
:020000040000fa
:1032600070b582b01546704b2022c3f89820032910
:1032700010d0044645686d4e03681b6806f2dc41b9
:103280002846984723681b6806f204512846984749
:1032900002b070bd664c6968204603f0fbfd654ec8
:1032a000a968304603f0f6fd32786349002002f049
:1032b000bff905226149204603f0f4fa002844d002
:1032c00005225f495a4803f0edfa002877d005221d
:1032d0005c49574803f0e6fa00286bd1534d05f2dc
:1032e000645103f05df9584b0193584c0126667008
:1032f0000923a3700223e370662204f8042f05f566
:103300002e71002002f094f9019a05f5af610020ba
:1033100002f08ef9444b2022c3f8942000231a4671
:103320003146204600f064fa18b93f4b2022c3f81a
:1033300094203d4b2022c3f8942000231a460421f8
:103340000deb010000f054fa34e0384e06f23c5127
:1033500003f026f93d4c374b1b78637101256570ee
:10336000a5700223e370462204f8042f06f52e719f
:10337000002002f05df92c4b2022c3f8942029464e
:10338000204603f063fd18b9274b2022c3f8942090
:1033900003f0e4fb03f070fc0028fbd1224b202259
:1033a000c3f8942001212a4803f050fd03f064fc87
:1033b0000028fbd11c4b2022c3f8982068e71b4e45
:1033c00006f5aa6103f0ecf8204cc02363710125d7
:1033d00065700423a3700223e370522204f8042fc3
:1033e00006f52e71002002f023f90f4b2022c3f8be
:1033f00094202946204603f029fd18b90a4b2022c3
:10340000c3f8942003f038fc0028fbd1064b20229f
:10341000c3f8942001210e4803f018fd03f02cfca2
:103420000028fbd1c6e700bf0080004188020000f1
:103430000c1100200c100020a4070000ac17002085
:10344000dc1700201c180020846e10000c0f0020d8
:04345000110f002038
:020000040000fa
:043454000004000070
:020000040000fa
:103458002de9f0472ded028b00226d490e2003f077
:1034680023f86c4c2025c4f898506b49002003f0d1
:1034780093f86a48c0234371012141700423837083
:103488000223c370522300f8043fc4f8945003f099
:10349800d9fc002843d003f0ebfb0028fbd15d4b9f
:1034a8002022c3f8942001215d4803f0cbfc03f0ef
:1034b800dffb0028fbd1574b2022c3f89420594b3f
:1034c8001b78002b00f09880574d584e0124dff8e8
:1034d800449190466f1ec9f894800321384603f042
:1034e80057fc2a4601346978013513781b0443eaee
:1034f80001239278134346f8043b4a4b1b78002b70
:10350800e9d1012c78dd4a4b03eb840403f104086c
:10351800484d05f5c0693ca7d7e9006729e0464949
:1035280003f03af8b7e707ee903af8eee77a9fed3e
:10353800437a67ee877a9fed427a67ee877abdee27
:10354800e78ab8eec87a77eec77a17ee900a02f0e3
:103558005fff32463b4600f061fb02f0a3fc0346e6
:1035680018ee102a05f25461002002f05df8444577
:1035780042d022684946002002f056f8226805f237
:103588001461002002f050f854f8043913f4000fc5
:10359800c9d043f07f43636005f22461002002f044
:1035a800fbff626805f24461002002f03df8d4edab
:1035b800017af8eee77a9fed217a67ee877a9fed38
:1035c800207a67ee877abdeee78ab8eec87a77ee9a
:1035d800c77a17ee900a02f01bff32463b4600f00e
:1035e8001dfb02f05ffcc34318ee102a05f254617c
:1035f800002002f019f8bae7064b2022c3f89820f9
:10360800bdec028bbde8f08700000000006af840be
:103618007d6e000000800041280900000c0f00208a
:10362800110f0020981700200d0e00206c170020a5
:103638006817002088020000500900003333534007
:04364800000000344a
:020000040000fa
:10364c002de9f04f85b0019001a802f01ffd002874
:10365c0003da002005b0bde8f08f019b1b095d1e4d
:10366c00202d0fd9023b5b4ab3f5007f35bf02eb2f
:10367c00d30302ebd31313f8045c13f8045c34bfcc
:10368c00013511350123a5f12001c5f1200203fa02
:10369c0001f923fa02f203fa05f849ea0209d8f112
:1036ac0000084d4f69eb4909d7e9002302ea080ae3
:1036bc0003ea090b5aea0b0342d1019b03a810330e
:1036cc00039303f0bcfa18b9444b0c221a60c1e7ff
:1036dc00d7f80852a84206d0039b103b0393012352
:1036ec0000f110058360039bea18012143f00103ec
:1036fc00b5f1080442f8083c42f8041cc7f808224b
:10370c0045f8043ca5d0204602f0d4ff88b155f80a
:10371c00083c55f8041c23f00103e31a5a6822f004
:10372c0001020a445a6055f8041c21f00101625050
:10373c001c462046019902f083fe04f1080089e73b
:10374c005046244a264bbaf1000f34d1cbf100017c
:10375c0001ea0b014b4302ebd36393f83c60203638
:10376c00304603f047f9731c57f8334007ebc3039b
:10377c00083b9c4298d0272e26dd0235ae4201dc58
:10378c003f2e21d16168019a21f001018d1a284642
:10379c0002f030fd864217d1a318e068a668d86005
:1037ac009e608360986842f00102c360c3e9002503
:1037bc0065506260bde7caf1000101404b4302eb6a
:1037cc00d36393f83c60cbe73146204602f020f9f6
:1037dc00afe700bf785a0000000c00208c170020c7
:0437ec0029e66b0758
:020000040000fa
:1037f00030b45c4c247f002c40f0ad80054604f0d2
:10380000ff0000294cd0002d4ad0574c646804f0ca
:103810000704012c61d053480560426000244461d4
:10382000846104614f488160002a5cd04d4ad360b6
:103830004c4a012111774c4a127e12f0040f05d038
:10384000494a916a117e11f0040ffad1464a518b10
:1038500041f004015183117e41f08001117641490c
:103860008a68c968914203d93e48c168891a0161d2
:103870003d49496811f0070f45d13a49896991429c
:1038800035d2384a11680878374988629169013120
:103890009161002b5bd0344b04229a7501205be0d0
:1038a000002b59d0002a57d02f4c646804f007042d
:1038b000012c0cd02b4805604260002444618461d7
:1038c0000461002daed1274900208860ace70029b3
:1038d00044d113f0010fedd03ee011f0010f3bd1c8
:1038e000002be7d0f5e71f4a0021d160a0e71d4a71
:1038f0001269002acdd01c4aff21916219490a6938
:10390000013a0a61c5e7174a91684908916011694f
:1039100049081161d1684908d160916892698a4269
:1039200008d2104a116808880f49886291690131ec
:103930009161aee70b4a1269002aaad00a4a4ff6f3
:10394000ff71916207490a69013a0a61a1e7012002
:10395000054b987500e0002030bc704711f0010f56
:0c396000b7d0f9e7281600200034004022
:020000040000fa
:10396c002de9f84304464568012904d090464e4e93
:10397c0006f1c0075ae000224b4e06f1c0081ae0cf
:10398c004a4f23681b6807f12c0128469847236887
:10399c001b68b1682846984723681b68f16828465d
:1039ac00984723681b6807f1340128469847012281
:1039bc00183646450ad07368002bf9d0002adfd19f
:1039cc0023681b68394928469847d9e723681b6840
:1039dc00374928469847374b03f10c0603f130085a
:1039ec00324f23681b6807f12c012846984723683f
:1039fc001b6856f80c1c2846984723681b6856f819
:103a0c00041c2846984723681b6807f13401284694
:103a1c0098470c36b045e3d123681b6807f1680161
:103a2c002846984737e01836be4236d07368002bcc
:103a3c00f9d0d8f80410b06803f00cf90028f2d1d2
:103a4c007768336813b30c374ff00008dff85c90dd
:103a5c0023681b6809f12c012846984723681b68ca
:103a6c0057f80c1c2846984723681b6857f8041c09
:103a7c002846984723681b6809f134012846984763
:103a8c0008f101080c3733684345dfd823681b68fd
:103a9c00094928469847bde8f88323681b680749fd
:103aac0028469847f7e700bf9413002070290000c0
:103abc00ac290000f4680000d8290000dc290000c3
:020000040000fa
:103acc00524b586a524b9b7d002b00f09d8070b579
:103adc004f494c6804f007044c4b5a699d699e6829
:103aec000b7e13f0040f56d0896a484bdb68934267
:103afc0051d9002c41d1454b5b6899540132444b50
:103b0c001b7e13f0010f15d0414b012119753f4b52
:103b1c009b68ab4255d93d4b1b68595d3c4b996238
:103b2c0001353a4b1b690bb9b54263d0374bdb6897
:103b3c00934263d0354b5a619d61354b1b7e13f01c
:103b4c00020f13d0334b1b78b3b1304bdb6893426d
:103b5c000fd12e4b00221a772d4907240c752d49b5
:103b6c000a701b6a43b1294b1b6a9847294b1b7877
:103b7c0013b1274b02229a7570bd244b5b6823f856
:103b8c0012100132224b1b7e13f0010fd2d0204bae
:103b9c000121197509e01e4b1b7e13f0010fc9d0d2
:103bac001b4b01211975002cb1d0184b9b68ab42f3
:103bbc0013d9164b1b6833f81510154b9962013548
:103bcc00afe7124b1b69002babd0114bff21996255
:103bdc000e490b69013b0b61a3e70c4b1b69002bd6
:103bec009fd00b4b4ff6ff71996208490b69013b53
:103bfc000b6196e7074b012119709be7044b0121e0
:103c0c0099750421197595e7704700bf2816002097
:083c1c00003400400b110020f0
:020000040000fa
:103c2400f0b540f2ff7681ea030c16ea115e1ebf7e
:103c3400b64516ea1355b54252d021ea465141f42d
:103c44008011a1fb024723ea465343f48013ae4498
:103c5400a0fb03650cf0004c36197d41a1fb034722
:103c640047f10003a0fb0217f619654153f1000365
:103c7400094218bf46f0010640f2fe74b3f5007f16
:103c840013d2aef5806ea64523d24cea0331280345
:103c940041ea155140ea16503203450872f10042d8
:103ca40050f1000051eb0e51f0bdaef2ff3ea645bf
:103cb4000fd24ceac321e80241ea555140ea56507a
:103cc400f202450872f1004250f1000051eb0e512e
:103cd400f0bd1eea0e0f2dd50cf000410020f0bd02
:103ce40016ea115f04bf01f000410020004218bf32
:103cf40041f0010116ea135f04bf03f00043002200
:103d0400124218bf43f0010306ea1354b44218bf29
:103d1400b64503d00cf000410020f0bd21f0004175
:103d240023f00043b1eb065f0cd8b3eb065f09d870
:103d340041b13bb10cf0004141f0fe4141f470014e
:103d44000020f0bd40f20001c7f6f8710020f0bd7c
:020000040000fa
:103d54002de9f04f0e4649683568d6f80890f768a3
:103d64008bb0cde903230029acbf25f00205012166
:103d740015f010030593039b8346d3e900232fd04a
:103d840052ea03002cd0a9f10208346915f00800a6
:103d940004f1ff3408904ff00000385518bf08f1c3
:103da400ff388a46012c1ddc059b002b54d1089b4f
:103db40013b1013c20233b5532690095013a4b462f
:103dc400121b3919584601f00bfadbf80430db05f5
:103dd40003d573689842b8bf18460bb0bde8f08f9e
:103de400c846d2e752ea030009d1baf1000f06dc53
:103df400a8eb010050440028d6dda807d4d502f072
:103e04000f000928d4bf00f1300e00f1570e0498ba
:103e1400a0f1410cbcf1190f04f1ff3410d84ef09d
:103e2400200cacf1610cbcf1190f09d87046099152
:103e3400cde9062302f0f5ffdde90623099986465c
:103e4400100940ea03704fea131c07f804e00af172
:103e5400ff3a02466346a5e7039bd3e9000150ea13
:103e64000103a4d03a19049b02f8013c023c30231c
:043e74003b559ce737
:020000040000fa
:103e78003b4b01221a7403f500633a4a9a621a46c8
:103e8800536813f0100ffbd1374b384a5a631a4660
:103e9800536813f0800ffbd1334b4222c3f88420c0
:103ea8001a46d2f8843013f0400ffad0304b002273
:103eb8009a6377225a631a46d36b13f0040ffbd127
:103ec8002b4b022283f830201a46d36b13f0020fd3
:103ed800fbd1274a136c03f00303032bfad1254bbc
:103ee80001225a711a46d37813f0010ffbd01e4bea
:103ef800214a1a621a46536813f0040ffbd11a4b71
:103f08001e4a5a621a46536813f0080ffbd1164b23
:103f18004122c3f890201a46d2f8903013f0400f8f
:103f2800fad0114b4122c3f8a0201a46d2f8a0308b
:103f380013f0400ffad00c4b4122c3f80c211a465b
:103f4800d2f80c3113f0400ffad00a4b6ff07f42d1
:103f58001a6142f2ff725a6102221a62704700bf68
:103f68000014004006013000001c0040060908004b
:103f7800001000400008004007010100070102008e
:020000040000fa
:103f8800496e76616c69642064726976657220692d
:103f98006e7374616e636500496e7374616e6365f8
:103fa80020616c726561647920696e2075736500a3
:103fb800496e76616c69642073797374656d206fde
:103fc800626a6563742068616e646c650000000055
:103fd800496e76616c69642044726976657220491d
:103fe8006e7374616e636500576173207468652031
:103ff80064726976657220696e697469616c697a40
:1040080065643f00496e76616c6964204472697624
:1040180065722048616e646c650000004661696cd9
:10402800656420746f2067657420636c69656e74bd
:10403800206d75746578206c6f636b004661696ce0
:10404800656420746f20676574207265736f75727c
:104058006365206c6f636b00496e73756666696390
:1040680069656e742051756575652044657074685e
:10407800000000005472616e736665722048616ebc
:0c408800646c6520496e76616c69640010
:020000040000fa
:104094002de9f84300286ad050f8043ca0f1080444
:1040a40023f00107e6193268934200d0ffde7268fc
:1040b40023681340da070fd4204602f0fffa0028e1
:1040c40057d1304602f06cfb0028f0d0736823f01f
:1040d40001031f441e44eae747f0010363603846c6
:1040e400336002f08bf8054602f088fc236872689e
:1040f4001340db07e0d5dff88ce0dee90089c5f189
:10410400200ca5f1200228fa05f009fa0cfc29fa82
:1041140002f240ea0c001043012100ea01020023ec
:104124001343c5f120007346a5f1200212d121faf0
:1041340000f001fa02f2a94042ea00021ebfdef8d2
:1041440000000143cef8001022b1def804100a4347
:10415400cef80420681c03ebc003a3f108026760d7
:104164003760a2605a68e2605c60e3689c60bde806
:10417400f883236823f00103e41a636823f001033e
:084184001f449ee7000c00201f
:020000040000fa
:10418c0070b500284bd1344b1b78002b55d1324bda
:10419c00012083f8700083f8710083f872001870a6
:1041ac000d685d61ca6a9a618a6ada6100221a62d4
:1041bc004c69dc608c699c605a6098844ff0ff30cd
:1041cc00986283f826205a704868d8628c681c6301
:1041dc00ce685e630e699e63ce69de640e6a1e65f0
:1041ec004e6a5e65096bd96583f864209a66da6657
:1041fc001a4a531e0f32ff2103f8011f9342fbd1c1
:10420c00b0f1ff3f02d0b4f1ff3f03d1eb6812498c
:10421c0013489847104b02221a74002070bd02f00c
:10422c001bfe10b94ff0ff30f8e702f00ffe0d49fe
:10423c0002f0b0f94ff0ff30f0e702f00dfe10b9cc
:10424c004ff0ff30eae702f001fe074902f0a2f955
:10425c004ff0ff30e2e700bff414002020170020dd
:0c426c0079420000883f0000a03f0000e5
:020000040000fa
:104278000378002b68d090f91030022b64d170b508
:104288000446056aab69c3f307223049742000fb72
:104298000212dbb203eb8303d66806ebc30696f97a
:1042a8001c00b0f1ff3f0ed0737fcbb900f01f03a5
:1042b800c0f34a1000f5020000f580700121994012
:1042c800c001fcf77ffd726aab699a4216d020469e
:1042d80002f032fd256a15b16b7d012b27d070bd28
:1042e80000f01f03c0f34a1000f5020000f58070cb
:1042f80001219940c001fdf711f8e4e701232b756e
:10430800ed69204602f018fd7368002be2d094f89e
:104318002630013384f826307368b26829460120b4
:10432800984794f82630013b84f82630d2e728468f
:1043380000f07af802236b7563695c682b696a6818
:10434800e968a868a047cae7704700bff4140020ce
:020000040000fa
:104358002de9f84300295ed00f4600242f4e304b3c
:1043680000f1010edff8bcc006e00cf801809a608d
:10437800621c0134974244d9726802f00702012a8c
:1043880018d09968dd684a1cd3f81080424528bfc8
:104398000022954236d010f80480756805f00705ac
:1043a800012de2d14d000cf81180691c00250cf894
:1043b8000150dce7d3f80880d96808f101021d69cb
:1043c800aa4228bf002291421cd01ef8145010f8af
:1043d800141041ea0521756805f00705012d05d07f
:1043e800c9b20cf808109a60621cc2e74fea480587
:1043f8005ffa81f90cf818900135090a0cf80510d4
:10440800f1e7144602f0b2fb10b1044b01229a7591
:104418002046bde8f8830c46f4e700bf00040043db
:08442800b8150020000400207b
:020000040000fa
:104430002de9f04186b080468169304ec1f30720f6
:10444000742202fb0060cbb203eb8303db00c06885
:104450001d181c5a02fb0462936a99423bd001aebc
:1044600005f10c070fcf0fc63b683360234b742256
:1044700002fb04346a69236d53f8223003932a69de
:10448000636d53f822300293aa69e36c53f822302b
:10449000049363691b68002101a89847d8f8183075
:1044a000a362002385f8203095f91c00b0f1ff3f8e
:1044b0000ed06b7fa3b900f01f03c0f34a1000f5c4
:1044c000020000f5807001219940c001fcf72aff2d
:1044d00006b0bde8f08195f82030002be4d0bee7af
:1044e00000f01f03c0f34a1000f5020000f58070d1
:1044f00001219940c001fcf769fce9e7f4140020b0
:020000040000fa
:1045000053ec102bc3f30a512de9f04140f2fd703a
:104510004e1e86421d4645d8a1f2ff30002835dbed
:10452000332831dc284bc0f120084ff0ff3c03fa60
:1045300008f2a1f21f412cfa00fc10ee104a4ceade
:10454000020c23fa01f24cea020c23fa00fe04ea00
:104550000c0605ea0e0724ea0c0256ea070425eacf
:104560000e030fd0002a73f100040bda4ff480150c
:1045700005fa08f425fa01f10c43121925fa00f0a6
:1045800040eb030343ec102bbde8f081002a73f1ec
:10459000000303db9fed080bbde8f0819fed080be6
:1045a000bde8f0810029efd10a4603f0004343ec57
:1045b000102be9e7aff300800000000000000000ce
:0c45c000000000000000f0bfffff0f0033
:020000040000fa
:1045cc00f8b52d494c6ad1e90623561c43f1000776
:1045dc00c1e90667002c4dd091f82030013381f8e9
:1045ec002030a36823b1a368013ba3604c6afcb1e3
:1045fc00a368ebb9012500271f4e0ae0e06901f022
:10460c00a1fde3680bb120699847746a84b1a36873
:10461c0073b925756575a37813b9e368002bedd1d3
:10462c00204601f0a1fba378002bead16770e8e7e4
:10463c00124d00242e4603e001342035052c13d0f6
:10464c0006eb44135b7d002bf6d006eb44130022e3
:10465c005a75ab78012befd16b6806eb44118b606c
:10466c00284600f0f3fbe7e7034a92f82030013bc1
:10467c0082f82030f8bd00bff8150020541400203b
:020000040000fa
:10468c002b49cb6823f4e0631b041b0c43f0bf6382
:10469c0043f40033cb60bff35f8f62b6254be0224f
:1046ac0083f80b234ff40060186083f81a234ff043
:1046bc008060186083f81f234ff00040186083f867
:1046cc0020230120586083f832234ff48020586057
:1046dc0083f833234ff40020586083f834234ff4cd
:1046ec008010586083f835234ff40010586083f81d
:1046fc0042230420986083f843230820986083f8b1
:10470c0044231020986083f8452320229a604b6a3a
:10471c0043f480234b624b6903434b614b6a43f474
:10472c0000334b624b6a43f480334b62704700bfdb
:08473c0000ed00e000e100e0e7
:020000040000fa
:104744002de9f041294e2a4c4ff00108294f13e07e
:10475400226afab1616a236a40469847a36a013320
:10476400226b934228bf002314e0a26aedb2bd5429
:10477400a36294f83430fbb9337e13f0040f32d0c3
:10478400b56aa36a0133226b934228bf0023e26a0d
:104794009a42ddd0e26a9a42eed0726802f00702d1
:1047a400012ae2d1a16a4a00e8b207f811000132f5
:1047b400c5f30725bd54dbe702f0e6f9236a002bb5
:1047c400dad0616a94f83c3033b1a36b9842d3d306
:1047d400236a00209847cfe7a36b9842ccd1236a81
:1047e40000209847c8e7bde8f08100bf00040043fb
:0847f400b815002000000020b0
:020000040000fa
:1047fc00882910b536d012dc812943d003dc8029fe
:10480c0040d0002010bd82290ed08429f9d119681e
:10481c0002b30a1d1a60b1f90020d3171ee0a029bb
:10482c002bd00bdc9029ecd11968073121f0070152
:10483c0001f108021a60d1e900230fe0c02901d070
:10484c00f029ded11a68111d19601368036000236a
:10485c00436005e00a1d1a600a880023c0e90023a2
:10486c000120cfe7196822b10a1d1a6091f90020c6
:10487c00d3e70a1d1a600a78efe71a68111d196050
:10488c001268cae719681ab10a1d1a600a68c4e7e7
:0c489c000c1d1c600b68c0e90032e1e755
:020000040000fa
:1048a80070b582b0254d264c264e14e0f25c8df88a
:1048b8000620013322699a4298bf0023e3606b689f
:1048c80003f00703012b14bf9df80630bdf806302e
:1048d800ab62237dbbb92b7e13f0010f2cd0a268ed
:1048e800e3689a4225d06a6802f00702012addd1fe
:1048f8005a0016f813108df806100132b25c8df8c4
:1049080007200133d6e702f0c7f92368002be2d06d
:104918006168237f33b1a3699842dcd323680320fd
:104928009847d8e7a3699842d5d1236803209847c8
:10493800d1e7024b01221a7502b070bd0004004392
:08494800b81500200004002056
:020000040000fa
:104950002de9f041d2e900230c4686b007465fea14
:10496000d37820684968a5680590e66841d052422e
:1049700063eb4303002908db20f002000590b8f147
:10498000000f02d1059948072ad5691e05a8029093
:104990000a20cde90010204600f09afdb8f1000f82
:1049a00002d1059b59071fd5b8f1000f00f1ff3068
:1049b00014bf2d232b2333542269059b0093013a06
:1049c0002b46121a3118384600f00cfc7b68db05c8
:1049d00003d563689842b8bf184606b0bde8f081b9
:1049e0000807d2d42946d1e71a07e5d50138202394
:0849f000e1e70029c0dac5e788
:020000040000fa
:1049f800244b002908bf1946234a136823f00203f1
:104a08001360d369002bfcd100282ed00368b3ebc8
:104a1800510f2cd830b45b00b1fbf3f3013b1a4ab9
:104a2800116821f040511160146881684568294374
:104a380021431160ff2b28bfff23dbb21373536898
:104a480023f0070353605368c1680b435360d3696d
:104a5800002bfcd101200c4a136843f002031360b9
:104a6800d369002bfcd130bc7047002000e0002047
:104a7800054a136843f002031360d369002bfcd185
:0c4a8800704700bf00879303003400401b
:020000040000fa
:104a94002de9f8430546884616461f46204b4ff03d
:104aa400ff39002404e0a14601341833082c2bd02c
:104ab4005a68002af7d0aa42f6d104eb4403184af4
:104ac40002ebc3039968304602f0c8f820bb04eb3c
:104ad4004403134a02ebc303d3f810e0d3f814c021
:104ae400b4f1ff3f13d00e4b62001019c000191827
:104af4004d6043f800808e60cf60c1f810e0c1f8cb
:104b040014c00120bde8f8834ff0000ce646b9f16b
:104b1400ff3f03d04c46e6e70020f3e70020f1e72f
:044b240094130020c6
:020000040000fa
:104b28002de9f04f83b080468b4601f108030193cd
:104b3800184602f06ff888b381460746d8f8006037
:104b4800d8f8045008f1200ad8f81c40a4eb0a044d
:104b5800a04207da3368134928469847013ca74220
:104b6800f8d14c4634b1104f336839462846984737
:104b7800013cf9d10199504602f088f933680b4994
:104b88002846984733685146284698470aeb090350
:104b9800c8f81830c8f81c30c8f8d4b003b0bde85d
:104ba800f08f00bf002a0000042a0000082a000035
:020000040000fa
:104bb80010b4204b4ff430221a604ff440421a616f
:104bc800012183f84b10022283f84e20062283f835
:104bd8004f20432283f8502083f8512083f8532034
:104be800c02283f83520002283f83720222083f85a
:104bf8003800202483f83940c3f8804044f2200468
:104c0800c3f8904083f8c52083f8c910072483f8b7
:104c1800ce4083f8d01083f8d11083f8b220402119
:104c280083f8b41083f8b72083f8b8005df8044b14
:084c3800704700bf008000413d
:020000040000fa
:104c400070b506460d464ff41270fef7fffc0446a1
:104c5000002830d04ff41272002102f053f8266081
:104c6000656004f12003a361e36104f1d80304f556
:104c7000127108e0c4f8cc30c4f8d0301b605b601f
:104c80005c338b420ed0d4f8cc20002af2d01a60cc
:104c9000d4f8d0205a601360d4f8cc205360c4f804
:104ca000cc30ede70023a360064b1b682bb1054b0e
:104cb0005a6894605c60204670bd024b1c605c606a
:084cc000f9e700bf58170020be
:020000040000fa
:104cc80008b5194b9847194b9847eff3108172b6fe
:104cd800174ad2f8883043f47003c2f88830bff31b
:104ce8004f8fbff36f8f01b962b6124a936823f0f2
:104cf800010393601346da6812f0010ffbd10d4be4
:104d080024225a6001229a6001f0a6f80a4b23f087
:104d18007f03074a9360094b9847094b9847094b0b
:104d2800984701f0dffefee7176f0000176f0000dd
:104d380000ed00e00060004100000000c1590000e3
:084d4800176f0000176f000057
:020000040000fa
:104d500010b582b000230193030103f1824303f5f0
:104d6000204393f84e30dbb20193019b13f0020f06
:104d70000dd0010101f1824202f52042022382f8a6
:104d80004e30134b0b4400221a73012400e002241e
:104d9000019b13f0010f0cd0010101f1824202f5d9
:104da0002042012382f84e30094b0b4400221a7333
:104db0000224074b03eb00135b6833b1044a02eb98
:104dc000001399685b682046984702b010bd00bf89
:044dd000c0160020e9
:020000040000fa
:104dd4002de9f0411c4ad36a956a89b30e46ab4269
:104de40008bf002227d00122dff864c0174ca0f1cd
:104df400020e0138144f0ce0e15c81540133396b2d
:104e0400994298bf0023b24214d2511cab4212d033
:104e14000a46dcf8041001f007010129ecd159001d
:104e240014f813800ef812800131615c00f812103e
:104e34000133e4e71d46044bdd621046bde8f08112
:104e44001d460a46f7e700bfb81500200000002001
:044e54000004004313
:020000040000fa
:104e580000283cd02de9f04186461d4b5a6ad0f80f
:104e68000880c2b1936844460025984518d30020ad
:104e780000219368c01841f100019369abb1d3f8e0
:104e880008c010eb0c0641f10007bd4208bfb44250
:104e98000bd31a46ede7c0f808800d4b586214e0b2
:104ea8000b4b58628261002003e0cef81830c2f83c
:104eb80018e0a8eb0000cef80800def8183023b19f
:104ec800def808109a68521a9a60bde8f0817047b7
:044ed800f8150020a9
:020000040000fa
:104edc00640a000061530000780a00008c0a00008c
:104eec0061530000a00a0000ac0a000061530000ee
:104efc00a00a0000c00a000061530000a00a0000d4
:104f0c00d40a000061530000a00a0000e80a000067
:104f1c0061530000f80a0000080b00006153000008
:104f2c00f80a0000180b000061530000280b000069
:104f3c00380b000061530000480b0000580b0000b8
:104f4c00615300006c0b0000780b000061530000f3
:044f5c008c0b0000ba
:020000040000fa
:104f6000ac0900009d560000980b0000c80b000023
:104f700061530000d40b0000040c000061320000fb
:104f80000c0c0000300c0000d10d0000380c0000ab
:104f90005c0c000059300000640c00009c0c000008
:104fa00059340000a80c0000e00c00009d580000df
:104fb000e80c0000180d000039580000200d00001a
:104fc000440d0000d5570000500d0000740d000086
:104fd000715700007c0d0000a00d0000e96d00007d
:044fe000a80d000018
:020000040000fa
:104fe4001d4a137843f001031370536813f0010f43
:104ff400fbd119490023cb614ff000730b624ff4ce
:1050040080438b600b61154b10221a819a821a849b
:105014009a851a87a3f84420a3f85020a3f85c20ab
:10502400a3f86820a3f87420a3f88020a3f88c20a8
:10503400a3f89820a3f8a4200e20a3f8b000a3f8a6
:10504400bc200b7843f002030b700a46536813f03c
:10505400020ffbd1704700bf00280040d41200208b
:020000040000fa
:105064001c4b1d4a1a604ff622029a814ff44032bb
:105074005a601a46d369002bfcd1164a136843f0d0
:1050840002031360d369002bfcd1144b00221a6273
:105094009a62da6283f8342083f83c209a63da87d0
:1050a4001a609a60da601a751a779a61094b5b681c
:1050b40003f00703012b094b14bf4ff480624ff434
:1050c40000721a631a61034b80229a7504229a753e
:1050d400704700bf0004004304011040b8150020cd
:020000040000fa
:1050e4000eb430b5adf5816d0df2144353f8042bb5
:1050f40001934ff4806102a800f000fc421e40f2cc
:10510400fe339a4221d8044602ab00221a54124bb1
:105114001b680344b3f5806f24bf0f4b1a600e4b1a
:105124001b680e4d1d4402a9284601f0b1fe294614
:10513400002001f0bdfc14f0030318bfc3f1040305
:10514400054a1c4413681c4414600df5816dbde8c8
:10515400304003b0704700bf7017002000080020e3
:020000040000fa
:105164002de9f84380b3894617460546002414e028
:10517400b8f1000f2cd008f101062221304601f0cd
:10518400c9fd18b3864226d000230370bc4238bf41
:1051940049f824600134451c1ad02221284601f024
:1051a400b9fd804608b1002303700c4e31462846f1
:1051b40000f0c4fe03460028dad0bc4238bf49f8e8
:1051c400243001340025f1e7002401e04ff0ff34de
:1051d4002046bde8f8834ff0ff34f9e76c2a00005d
:020000040000fa
:1051e4002de9ff471d460c9b13f0010906468a462c
:1051f400144601d195420bd822465146304601f05f
:1052040063fba54204d82546284604b0bde8f087d0
:105214002f1b102f3a464ff0200128bf102268465a
:10522400b84601f06dfdb8f10f0f11d83b096ff0ce
:105234000f0202fb03726946304601f045fbb9f1e7
:10524400000fe1d122465146304601f03dfbdbe739
:1052540010226946304601f037fba8f11008e2e756
:020000040000fa
:1052640030b50d4689b0044620220021684601f07d
:1052740047fd2878a8b16b7863b1013d012015f88a
:10528400013f83b921460125084611f8013bc3b902
:10529400001b06e023461a46013311788142fad0f6
:1052a400101b09b030bd5a0908a901eb820203f0b2
:1052b4001f0352f8201c00fa03f30b4342f8203c6e
:1052c400dde75a090df1200c0ceb820203f01f03f9
:0e52d40052f8202c05fa03f31342d5d1d8e787
:020000040000fa
:0252e200704713
:020000040000fa
:1052e40010b501f04ffdfff765fcfef7c3fdfff7b6
:1052f400f6ff00f0effe00f06efc00f0abf8fff7f5
:10530400affefff76dfe00f0bbfc0e490020fef778
:105314003bff0d4c20600d4801f028f90c4900209a
:1053240000f0f0f960600b49002001f0cffba060b1
:105334000949002000f050fce06001f0a7f9fff7f4
:10534400a3f910bde4630000301700207c1700208f
:0c535400d86e000054340000706e0000a1
:020000040000fa
:105360002de9f041054646681a4c03681b6804f1b4
:105370004801304698472b681b6804f17c01304691
:105380009847154b03f10c0403f19008114f2b685b
:105390001b6807f13401304698472b681b6854f8a6
:1053a0000c1c304698472b681b6854f8041c304688
:1053b00098472b681b6807f13c01304698470c342e
:1053c0004445e3d12b681b6807f1440130469847f8
:0c53d000bde8f08188020000dc4e000007
:020000040000fa
:1053dc00842910b523d00cdc812903d0822913d069
:1053ec0080290bd119680c1d1c600b6803601a60b6
:1053fc0013e0902921d003dc882917d0002010bda0
:10540c00a029efd0c029ece719680c1d1c600b68b3
:10541c000360d1171046c3e900010120efe71968ba
:10542c000c1d1c600b6803601a80f6e719680c1dd4
:10543c001c600b6803601a70efe719680c1d1c6088
:0c544c0009680160d317c1e90023e6e7fe
:020000040000fa
:1054580070b4174a00211170516091601173117472
:105468005161916111771348134b5863134c9c6336
:105478005c6944f081345c61114c1c6440f209445d
:10548800048083f8451001251570032483f84d40e6
:105498000c4e1e6540f60906068283f855101574f1
:1054a80083f85d4040f602721a8070bc704700bff6
:1054b800c0160020a016002000a00041e016002021
:0854c80000072000000620008f
:020000040000fa
:1054d0002de9f84f04460c9f6668d4f80cb0246997
:1054e00010463a68013c002502f0020a0b9a0bf8bc
:1054f0000450002e1946b8bf0126012390464feafa
:10550000e279002c03dcd3b12046bde8f88f50eae5
:10551000010209d1721b002a06dc0a9a521b002ada
:10552000f1ddbaf1000feed042464b4601f0e0f853
:10553000013c134630320bf804200135e1e73b68ab
:0855400023f010033b60dfe7dc
:020000040000fa
:1055480030b50d46097889b0044609b16b782bb996
:10555800204600f001fa001b09b030bd20220021ce
:10556800684601f0cbfb013d012015f8013fa3b9c6
:1055780021460125084611f8013b002bebd05a09ba
:105588000df1200c0ceb820203f01f0352f8202cc3
:1055980005fa03f31342edd0dde75a0908a901eb38
:1055a800820203f01f0352f8201c00fa03f30b4396
:0655b80042f8203cd9e797
:020000040000fa
:1055be00f0b50c4649682368a768e56887b00029ee
:1055ce000593a4bf23f00203059305ab02930823b2
:1055de00cde900730646d2e900232046fff771ff9e
:1055ee00059bd90642bf00f1ff3030232b54059b9b
:1055fe001a0742bf00f1ff3020232b542269059b6e
:10560e000093013a3b46121a29183046fff7e3fd84
:10561e007368db0503d563689842b8bf184607b0b8
:02562e00f0bdcd
:020000040000fa
:1056300000282cd10eb410b583b0154b93f900306f
:1056400033b1134b5b681bb1124b1b78012b04d099
:1056500003b0bde8104003b070470e4b00221a7033
:1056600006ab0193059ac8210b4800f049f9431e87
:10567000c62b08d8084900230b54054b5a685469b7
:1056800002469868a047034b01221a70e0e7704772
:0c5690004c170020951700200c12002081
:020000040000fa
:10569c002de9f0410546466803681b6815493046fc
:1056ac009847154b03f10c0403f19008114f2b682c
:1056bc001b6807f13401304698472b681b6854f877
:1056cc000c1c304698472b681b6854f8041c304659
:1056dc0098472b681b6807f13c01304698470c34ff
:1056ec004445e3d12b681b6807f1440130469847c9
:0c56fc00bde8f08188020000604f000053
:020000040000fa
:1057080038b521b330bb154c012384f828300b6819
:1057180063604ff48062e260b1f9042022810020c6
:105728000021c4e906010025656284f820501b6841
:1057380029460b48984763685b689847a022294622
:10574800084801f0dbfa02232370204638bd4ff0e9
:10575800ff30fbe74ff0ff30f8e700bff8150020f7
:08576800cd450000541400209f
:020000040000fa
:1057700010b57822114c04f8012f11490020fff7d1
:1057800057ff00210f4801f05bfb0f4b2022c3f8ad
:1057900094200121204601f059fb40b10b49002023
:1057a00000f0fefe01f068fa0028fbd110bd0849a8
:1057b000002000f0f5fe002001f03cfa0c0f002064
:1057c00004040000056c0000008000411404000087
:0457d0002c040000a5
:020000040000fa
:1057d40010b57022114c04f8012f11490020fff775
:1057e40025ff00210f4801f029fb0f4b2022c3f8ad
:1057f40094200121204601f027fb40b10b490020f1
:10580400fff714ff01f036fa0028fbd110bd084958
:105814000020fff70bff002001f00afa0c0f002014
:1058240004040000056c00000080004160040000d6
:0458340084040000e8
:020000040000fa
:1058380010b56c22114c04f8012f11490020fff714
:10584800f3fe00210f4801f0f7fa0f4b2022c3f8ae
:1058580094200121204601f0f5fa40b10b490020bf
:10586800fff7e2fe01f004fa0028fbd110bd084959
:105878000020fff7d9fe002001f0d8f90c0f002016
:1058880004040000056c000000800041b40400001e
:045898008404000084
:020000040000fa
:10589c0010b56822114c04f8012f11490020fff7b4
:1058ac00c1fe00210f4801f0c5fa0f4b2022c3f8ae
